:020000040000FA
:0400000015EF13F0F5
:10060000002044697374616E63653A0020636D2055
:09061000202000256400300000E8
:10061A000450800B0D6E045004240F6E03AE18EFC5
:10062A0003F01AEF03F01BEF03F00F800F50D8B45A
:10063A0021EF03F023EF03F038EF03F00F28D8A4DB
:10064A0029EF03F02BEF03F033EF03F0000E016EF6
:10065A00000E026E000E036E000E046E038E000E74
:10066A00046E40EF03F0000E016E000E026E000EE3
:10067A00036E000E046E0850800B0E6E0D500E189D
:10068A00D8B44AEF03F04CEF03F04DEF03F00D8CB2
:10069A00085008240E6E07AE55EF03F057EF03F02B
:1006AA0058EF03F00E800E50D8B45EEF03F060EFFF
:1006BA0003F075EF03F00E28D8A466EF03F068EF95
:1006CA0003F070EF03F0000E056E000E066E000ECA
:1006DA00076E000E086E078E000E086E7DEF03F09F
:1006EA00000E056E000E066E000E076E000E086EF6
:1006FA000F500E5CD8B084EF03F086EF03F0ADEF35
:10070A0003F00DAC8BEF03F08DEF03F08FEF03F0E6
:10071A00800E0D1A0FC010F00EC00FF010C00EF0B0
:10072A0001C010F005C001F010C005F002C010F0C1
:10073A0006C002F010C006F003C010F007C003F0B4
:10074A0010C007F004C010F008C004F010C008F090
:10075A00000E106E0F500EC009F00A6A095E000EF4
:10076A000A5A0ABEC2EF03F00A5009E11A0E095CDE
:10077A00D8A0C2EF03F0C4EF03F0FBEF03F001507F
:10078A00021003100410D8A4CDEF03F0D0EF03F049
:10079A00010ED1EF03F0000E106E000E016E000E76
:1007AA00026E000E036E000E046E0EC00FF004EF10
:1007BA0004F010A0E3EF03F0E5EF03F0EBEF03F032
:1007CA00D89010300109106EEDEF03F0D890103276
:1007DA0001A0F2EF03F0F4EF03F0F5EF03F0108E4F
:1007EA00043404320332023201320F2A0E500F5CF3
:1007FA00D8A002EF04F004EF04F0DEEF03F00DBC22
:10080A0009EF04F00BEF04F04BEF04F00F50D8A4FB
:10081A0011EF04F013EF04F01DEF04F0000E016E67
:10082A00000E026E000E036E000E046E6CEF05F0F1
:10083A0005500126065002220750032208500422BE
:10084A0004A02AEF04F02CEF04F0D8EF04F010A073
:10085A0031EF04F033EF04F039EF04F0D8901030A0
:10086A000109106E3BEF04F0D890103201A040EF5E
:10087A0004F042EF04F043EF04F0108E0434043223
:10088A000332023201320F2AD8EF04F00550015C1C
:10089A0006500258075003580450800A096E08503F
:1008AA00800A0958D8B05CEF04F05EEF04F089EFD3
:1008BA0004F00150055C096E025006580A6E035096
:1008CA0007580B6E045008580C6EFF0E0924016E6F
:1008DA00FF0E0A20026EFF0E0B20036EFF0E0C2085
:1008EA00046E800E0D1A106C1050D8A47FEF04F01D
:1008FA0081EF04F091EF04F0010E0126000E0222AE
:10090A000322042291EF04F00550015E0650025AB8
:10091A000750035A0850045A0150021003100410D9
:10092A00D8A49AEF04F09CEF04F0D1EF04F0105031
:10093A00D8A4A2EF04F0A4EF04F0D1EF04F0000E63
:10094A00016E000E026E000E036E000E046E6CEF56
:10095A0005F0D890013602360336043610AEB8EFE9
:10096A0004F0BAEF04F0BBEF04F0018010A0C0EF6E
:10097A0004F0C2EF04F0C6EF04F0D8801036C8EFD6
:10098A0004F0D89010360F50D8B4CEEF04F0D0EF60
:10099A0004F0D1EF04F00F0603AED6EF04F0D8EF5F
:1009AA0004F0AEEF04F0000E0E6E10AEDFEF04F0AE
:1009BA00E1EF04F0F9EF04F010C009F07F0E091618
:1009CA00D8B4EAEF04F0ECEF04F0F0EF04F0010E13
:1009DA000E6EF9EF04F001A0F5EF04F0F7EF04F062
:1009EA00F9EF04F0ECEF04F00E50D8B4FFEF04F086
:1009FA0001EF05F02CEF05F0010E0126000E022290
:100A0A000322042204A00CEF05F00EEF05F02CEFF0
:100A1A0005F001C009F002C00AF003C00BF004C0DF
:100A2A000CF00C340C320B320A32093209C001F0D4
:100A3A000AC002F00BC003F00CC004F00F28D8B4AF
:100A4A0029EF05F02BEF05F02CEF05F00F2A0F2800
:100A5A00D8B432EF05F034EF05F03CEF05F00F5053
:100A6A00D8A43AEF05F03CEF05F04EEF05F0000E82
:100A7A00016E000E026E000E036E000E046E0F5021
:100A8A00D8A44AEF05F04CEF05F04EEF05F0000E42
:100A9A000D6E0FA053EF05F055EF05F058EF05F076
:100AAA00038E59EF05F0039ED8900F30046E0DAEF9
:100ABA0061EF05F063EF05F064EF05F0048E01C005
:100ACA0001F002C002F003C003F004C004F01200F7
:100ADA002B50800B346E2B502B243A6E2AAE78EFB3
:100AEA0005F07AEF05F07BEF05F03A803A50D8B47A
:100AFA0081EF05F083EF05F096EF05F03A28D8A4C8
:100B0A0089EF05F08BEF05F093EF05F0000E286EE4
:100B1A00000E296E000E2A6E000E2B6E2A8E9EEF94
:100B2A0005F0000E286E000E296E000E2A6E000EC9
:100B3A002B6E2F50800B341A2F502F24396E2EAE65
:100B4A00A9EF05F0ABEF05F0ACEF05F039803950AD
:100B5A00D8B4B2EF05F0B4EF05F0C7EF05F03928C5
:100B6A00D8A4BAEF05F0BCEF05F0C4EF05F0000E0B
:100B7A002C6E000E2D6E000E2E6E000E2F6E2E8E17
:100B8A00CFEF05F0000E2C6E000E2D6E000E2E6EAD
:100B9A00000E2F6E3950D8B4D5EF05F0D7EF05F017
:100BAA00DFEF05F03A50D8A4DDEF05F0DFEF05F0EE
:100BBA00E9EF05F0000E286E000E296E000E2A6E6F
:100BCA00000E2B6E81EF07F02E502802F3CF3FF074
:100BDA00F4CF40F03F50356E366A376A386A405073
:100BEA003B6E3C6A3D6A3E6A2D502902F3CF3FF0C4
:100BFA00F4CF40F03F503526000E362237223822F5
:100C0A0040503B26000E3C223D223E222C502A0216
:100C1A00F3CF3FF0F4CF40F03F503526000E362296
:100C2A003722382240503B26000E3C223D223E22EB
:100C3A0037C038F036C037F035C036F0356A2C5038
:100C4A002902F3CF3FF0F4CF40F03F503526405011
:100C5A003622000E3722000E38222D502802F3CFFA
:100C6A003FF0F4CF40F03F50352640503622000E78
:100C7A003722000E382237C038F036C037F035C078
:100C8A0036F0356A2C502802F3CF3FF0F4CF40F00B
:100C9A003F50352640503622000E3722000E3822A9
:100CAA002E502902F3CF3FF0F4CF40F03F503B26BD
:100CBA0040503C22000E3D22000E3E222D502A02B8
:100CCA00F3CF3FF0F4CF40F03F503B2640503C2258
:100CDA00000E3D22000E3E222E502A02F3CF3FF094
:100CEA00F4CF40F03F50306E4050316E326A336A72
:100CFA0032C033F031C032F030C031F0306A305097
:100D0A003B2631503C2232503D2233503E2235C0E0
:100D1A0030F036C031F037C032F038C033F0190E37
:100D2A009CEF06F0D8903332323231323032E82E2C
:100D3A0097EF06F030503B2631503C2232503D228C
:100D4A0033503E2237C038F036C037F035C036F05F
:100D5A00356A39503AC030F0316A3026000E3122F5
:100D6A00820E30243F6EFF0E3120406ED2EF06F025
:100D7A00D8903B363C363D363E3638AEC7EF06F0A5
:100D8A00C9EF06F0CAEF06F03B80D8903536363602
:100D9A00373638363F06D8A040063DAED7EF06F0C4
:100DAA00D9EF06F0BDEF06F0000E396E38AEE0EF6F
:100DBA0006F0E2EF06F006EF07F0FF0E3514306E8C
:100DCA00FF0E3614316EFF0E3714326E7F0E381452
:100DDA00336E3050311032103310D8B4F7EF06F0BA
:100DEA00F9EF06F0FDEF06F0010E396E06EF07F097
:100DFA003BA002EF07F004EF07F006EF07F0F9EF68
:100E0A0006F03950D8B40CEF07F00EEF07F032EFC6
:100E1A0007F0010E3B26000E3C223D223E223EA058
:100E2A0019EF07F01BEF07F032EF07F03BC030F085
:100E3A003CC031F03DC032F03EC033F0333433327F
:100E4A0032323132303230C03BF031C03CF032C045
:100E5A003DF033C03EF03F4A402A40BE3DEF07F026
:100E6A00405008E13F28D8A03DEF07F03FEF07F0D8
:100E7A0049EF07F0000E3B6E000E3C6E800E3D6E91
:100E8A007F0E3E6E77EF07F040BE56EF07F04050F8
:100E9A0006E13F04D8B054EF07F056EF07F062EFCF
:100EAA0007F0000E3B6E000E3C6E000E3D6E000E0B
:100EBA003E6E000E346E77EF07F03FC03AF0FF0E39
:100ECA003B16FF0E3C167F0E3D16000E3E163AA04C
:100EDA0071EF07F073EF07F074EF07F03D8ED890CB
:100EEA003A303E6E34503E123BC028F03CC029F0E6
:100EFA003DC02AF03EC02BF012001250800B1F6E2C
:100F0A0012501224266E11AE8DEF07F08FEF07F004
:100F1A0090EF07F026802650D8B496EF07F098EFA6
:100F2A0007F0ADEF07F02628D8A49EEF07F0A0EF50
:100F3A0007F0A8EF07F0000E0F6E000E106E000EFD
:100F4A00116E000E126E118E000E126EB5EF07F0C2
:100F5A00000E0F6E000E106E000E116E000E126E55
:100F6A001650800B1F1A16501624276E15AEC0EFA6
:100F7A0007F0C2EF07F0C3EF07F027802750D8B475
:100F8A00C9EF07F0CBEF07F0E0EF07F02728D8A466
:100F9A00D1EF07F0D3EF07F0DBEF07F0000E136E87
:100FAA00000E146E000E156E000E166E158E000ED3
:100FBA00166EE8EF07F0000E136E000E146E000EA8
:100FCA00156E000E166E1350141015101610D8A4B4
:100FDA00F1EF07F0F3EF07F00BEF08F0000E0F6EDA
:100FEA00000E106E000E116E000E126E800E11129F
:100FFA007F0E12121F5012120FC00FF010C010F005
:10100A0011C011F012C012F04EEF09F02650D8A408
:10101A0011EF08F013EF08F01DEF08F0000E0F6E45
:10102A00000E106E000E116E000E126E4EEF09F0D9
:10103A00275026C017F0186A175E000E185A7F0E3E
:10104A001724206E000E1820216E0FC01BF010C04E
:10105A001CF011C01DF012C01EF0000E0F6E000E23
:10106A00106E000E116E000E126E000E226E000E31
:10107A00236E000E246E000E256E000E276E7EEF84
:10108A0008F02750D8B44CEF08F04EEF08F065EF9F
:10109A0008F0D8901B361C361D361E36D8900F36EF
:1010AA0010361136123625AE5DEF08F05FEF08F004
:1010BA0060EF08F00F80D890223623362436253682
:1010CA0013501B5C14501C5815501D5816501E58AE
:1010DA00D8A072EF08F074EF08F07DEF08F0258CC5
:1010EA0013501B5E14501C5A15501D5A16501E5A86
:1010FA00272A190E276484EF08F086EF08F046EFD6
:10110A0008F01B501C101D101E10D8B48FEF08F0E9
:10111A0091EF08F0A9EF08F02280A9EF08F0D89023
:10112A000F3610361136123625AE9EEF08F0A0EFB4
:10113A0008F0A1EF08F00F80D89022362336243623
:10114A0025362006D8A0210611AEAEEF08F0B0EF82
:10115A0008F094EF08F0000E276E25AEB7EF08F0FE
:10116A00B9EF08F0DDEF08F0FF0E2214176EFF0E3C
:10117A002314186EFF0E2414196E7F0E25141A6E8E
:10118A001750181019101A10D8B4CEEF08F0D0EF73
:10119A0008F0D4EF08F0010E276EDDEF08F00FA07B
:1011AA00D9EF08F0DBEF08F0DDEF08F0D0EF08F038
:1011BA002750D8B4E3EF08F0E5EF08F009EF09F09B
:1011CA00010E0F26000E10221122122212A0F0EF99
:1011DA0008F0F2EF08F009EF09F00FC017F010C09D
:1011EA0018F011C019F012C01AF01A341A32193252
:1011FA001832173217C00FF018C010F019C011F0CA
:10120A001AC012F0204A212A21BE14EF09F02150F7
:10121A0008E12028D8A014EF09F016EF09F021EF11
:10122A0009F0000E216E2068000E0F6E000E106E7F
:10123A00000E116E000E126E21BE2EEF09F0215023
:10124A0006E12004D8B02CEF09F02EEF09F03CEFAC
:10125A0009F0000E216E000E206E000E0F6E000EB9
:10126A00106E000E116E000E126E000E1F6E20C060
:10127A0026F026A043EF09F045EF09F048EF09F000
:10128A00118E49EF09F0119ED8902630126EFFEFA9
:10129A0007F012001EC036F01FC037F020C038F029
:1012AA0021C039F022C03AF023C03BF024C03CF000
:1012BA0025C03DF03DBE64EF09F067EF09F0010E6D
:1012CA0068EF09F0000E346E356A34503510D8B420
:1012DA0071EF09F073EF09F083EF09F03D1E3C1E30
:1012EA003B1E3A1E391E381E371E366C000E372238
:1012FA00382239223A223B223C223D220001CFBF2A
:10130A0089EF09F08BEF09F08CEF09F05E92CFBFFD
:10131A0099EF09F0CF5106E1CE05D8B097EF09F061
:10132A0099EF09F09FEF09F0000E316E010E306E51
:10133A00A3EF09F0CEC030F0CFC031F0CCC032F00C
:10134A00CDC033F034503510D8A4AEEF09F0B0EF69
:10135A0009F0B7EF09F05EA4B5EF09F0B7EF09F0AD
:10136A00BAEF09F03206D8A03306000E3F6E1F0E00
:10137A003E6E000EFB6F3EEF0AF03E06D8A03F0617
:10138A00DC0E3E24D96E000E3F20DA6E36C001F024
:10139A0037C002F038C003F039C004F03AC005F093
:1013AA003BC006F03CC007F03DC008F00A0E096ECB
:1013BA00000E0A6E000E0B6E000E0C6E000E0D6E05
:1013CA00000E0E6E000E0F6E000E106E27EC0EF061
:1013DA0001C026F002C027F003C028F004C029F09B
:1013EA0005C02AF006C02BF007C02CF008C02DF06B
:1013FA0026C013F028C014F0A2EC12F01350300FDC
:10140A00DF6E3006D8A031063206D8A0330636C0C1
:10141A0001F037C002F038C003F039C004F03AC016
:10142A0005F03BC006F03CC007F03DC008F00A0ECC
:10143A00096E000E0A6E000E0B6E000E0C6E000E88
:10144A000D6E000E0E6E000E0F6E000E106E63EC27
:10145A000DF001C036F002C037F003C038F004C006
:10146A0039F005C03AF006C03BF007C03CF008C0AE
:10147A003DF03FBE49EF0AF03F5008E13E04D8A0D4
:10148A0049EF0AF04BEF0AF07BEF0AF036503710BB
:10149A00381039103A103B103C103D10D8A458EFC0
:1014AA000AF05AEF0AF0C2EF09F031BE67EF0AF00C
:1014BA00315006E13004D8B065EF0AF067EF0AF060
:1014CA00C2EF09F033BE72EF0AF0335008E132047A
:1014DA00D8A072EF0AF074EF0AF07BEF0AF05EB25E
:1014EA0079EF0AF07BEF0AF0C2EF09F034503510B9
:1014FA00D8A482EF0AF084EF0AF08BEF0AF05EA418
:10150A0089EF0AF08BEF0AF0A9EF0AF03E06D8A09D
:10151A003F0634503510D8A495EF0AF097EF0AF039
:10152A009DEF0AF0000E2F6E2B0E2E6EA1EF0AF021
:10153A00000E2F6E2D0E2E6EDC0E3E24D96E000E7E
:10154A003F20DA6E2EC0DFFF1CC011F01DC012F062
:10155A00DC0E3E24136E000E3F20146E32C015F0CE
:10156A0033C016F025EC11F011C01CF012C01DF0AA
:10157A0012009368000E956E000E946EF19EFDECBB
:10158A0012F08C908C92800ECD6E9E90000ECF6ED3
:10159A00000ECE6E010E0B6E010E0C6E060E0D6E57
:1015AA00010EC2EC12F08BEC0FF00001D3BFE6EF94
:1015BA000AF0D35108E1D205D8A0E6EF0AF0E8EF25
:1015CA000AF007EF0BF06A0E586E000E596E130EF2
:1015DA005A6E060E5B6ED2C05CF0D3C05DF0E6ECCC
:1015EA0011F0010E0B6E6A0E0C6E000E0D6E020EDD
:1015FA00C2EC12F00C0E096E060E0A6EB7EC11F070
:10160A0010EF0BF0010E0B6E160E0C6E060E0D6E21
:10161A00020EC2EC12F0D9EC0EF00001D1BF1EEF9F
:10162A000BF0D15108E1D005D8A01EEF0BF020EF46
:10163A000BF03FEF0BF0920E586E000E596E130E20
:10164A005A6E060E5B6ED0C05CF0D1C05DF0E6EC5F
:10165A0011F00A0E0B6E920E0C6E000E0D6E020E3B
:10166A00C2EC12F00C0E096E060E0A6EB7EC11F0FF
:10167A0048EF0BF00A0E0B6E160E0C6E060E0D6E70
:10168A00020EC2EC12F00001D3BF57EF0BF0D35198
:10169A0007E1640ED25DD8B055EF0BF057EF0BF0AF
:1016AA0069EF0BF0D1BF65EF0BF0D15107E1640E82
:1016BA00D05DD8B063EF0BF065EF0BF069EF0BF07C
:1016CA00F00E826ED8EF0AF0D3BF75EF0BF0D3514C
:1016DA0009E1650ED25DD8A075EF0BF077EF0BF03C
:1016EA0089EF0BF0D1BF85EF0BF0D15107E1650E01
:1016FA00D05DD8B083EF0BF085EF0BF089EF0BF0DC
:10170A00300E826ED8EF0AF0D3BF97EF0BF0D351A9
:10171A0007E1650ED25DD8B095EF0BF097EF0BF0AD
:10172A00A9EF0BF0D1BFA3EF0BF0D15109E1650E80
:10173A00D05DD8A0A3EF0BF0A5EF0BF0A9EF0BF04B
:10174A00C00E826ED8EF0AF0000E826ED8EF0AF051
:10175A0000EF00F042C0D9FF43C0DAFFDECFF6FF48
:10176A00DDCFF7FF0800F550250AD8A4BFEF0BF02C
:10177A00C1EF0BF06DEF0CF042C0D9FF43C0DAFFA6
:10178A00DE2A000EDD22000E0001CD6F000ECC6FA6
:10179A00CCC05EF0CDC05FF0CE69CF6942C0D9FF40
:1017AA0043C0DAFFDECFF6FFDDCFF7FF0800F550C2
:1017BA00640AD8B4E3EF0BF0E5EF0BF0F7EF0BF0A8
:1017CA0042C0D9FF43C0DAFFDECFF6FFDDCFF7FF15
:1017DA000800F550690AD8A4F5EF0BF0F7EF0BF003
:1017EA0037EF0CF042C0D9FF43C0DAFFDE2A000E01
:1017FA00DD2244C0D9FF45C0DAFFDFCF46F0020E32
:10180A00DE26DFCF47F0000EDD2246C0D9FF47C0F3
:10181A00DAFFDECF48F0DDCF49F0000E49BEFF0EF9
:10182A004A6E4B6E4C6E4D6E4E6E4F6E40C01CF043
:10183A0041C01DF048C01EF049C01FF04AC020F048
:10184A004BC021F04CC022F04DC023F04EC024F012
:10185A004FC025F04FEC09F01CC040F01DC041F00C
:10186A0088EF0CF042C0D9FF43C0DAFFDECFF6FFA3
:10187A00DDCFF7FF0800F550250AD8A447EF0CF092
:10188A0049EF0CF060EF0CF042C0D9FF43C0DAFF19
:10189A00DE2A000EDD22000E026E250E016E40C009
:1018AA0003F041C004F0C0EC10F0000E416E010ECE
:1018BA00406E88EF0CF042C0D9FF43C0DAFFDE2A3F
:1018CA00000EDD22000E416E000E406E88EF0CF015
:1018DA0042C0D9FF43C0DAFFDECFF6FFDDCFF7FF04
:1018EA000800F550016E026A40C003F041C004F0DE
:1018FA00C0EC10F042C0D9FF43C0DAFFDE2A000E66
:10190A00DD225AEF0CF01200096E0950D8B490EF9C
:10191A000CF092EF0CF0B4EF0CF004BE99EF0CF05F
:10192A0097EF0CF0B4EF0CF001C005F002C006F01E
:10193A0003C007F004C008F0051E061E071E081E95
:10194A00052A000E06220722082205C00BF006C04F
:10195A000CF007C00DF008C00EF0BCEF0CF001C08F
:10196A000BF002C00CF003C00DF004C00EF00150E1
:10197A00021003100410D8A4C5EF0CF0C7EF0CF046
:10198A00D1EF0CF0000E016E000E026E000E036E17
:10199A00000E046E62EF0DF0960E0A6EDBEF0CF08D
:1019AA000A2AD8900E320D320C320B32000E0B146A
:1019BA00056E000E0C14066E000E0D14076EFE0E58
:1019CA000E14086E0550061007100810D8A4F0EF80
:1019DA000CF0F2EF0CF0D5EF0CF000EF0DF00A2A44
:1019EA00010E0B26000E0C220D220E22D8900E326A
:1019FA000D320C320B32000E0B14056E000E0C1455
:101A0A00066E000E0D14076EFF0E0E14086E0550BA
:101A1A00061007100810D8A415EF0DF017EF0DF0F7
:101A2A00F4EF0CF01FEF0DF00A06D8900B360C36C7
:101A3A000D360E360DBE24EF0DF026EF0DF02EEF0B
:101A4A000DF0020E0A602CEF0DF02EEF0DF019EFDB
:101A5A000DF00AB033EF0DF035EF0DF036EF0DF063
:101A6A000D9ED8900A320AC005F0066A076A086A0B
:101A7A0005C008F0076A066A056A05500B12065087
:101A8A000C1207500D1208500E120950D8B450EF1C
:101A9A000DF052EF0DF05AEF0DF004BE59EF0DF0B4
:101AAA0057EF0DF05AEF0DF00E8E0BC001F00CC07F
:101ABA0002F00DC003F00EC004F01200000E126E08
:101ACA0010BE6CEF0DF06AEF0DF07EEF0DF0101EF8
:101ADA000F1E0E1E0D1E0C1E0B1E0A1E096C000E7A
:101AEA000A220B220C220D220E220F221022010E94
:101AFA00126E08BE85EF0DF083EF0DF097EF0DF033
:101B0A00081E071E061E051E041E031E021E016C69
:101B1A00000E02220322042205220622072208229C
:101B2A00010E121A20EE13F0070EDE6AE806FDE235
:101B3A0009500A100B100C100D100E100F10101077
:101B4A00D8B4AAEF0DF0ACEF0DF0FEEF0DF0010ED8
:101B5A00116EBAEF0DF0D89009360A360B360C36EC
:101B6A000D360E360F361036112A10AEBFEF0DF0B5
:101B7A00C1EF0DF0B0EF0DF0D890133614361536CC
:101B8A0016361736183619361A360950015C0A50B5
:101B9A0002580B5003580C5004580D5005580E505B
:101BAA0006580F50075810500858D8A0DFEF0DF00C
:101BBA00E1EF0DF0F2EF0DF00950015E0A50025A02
:101BCA000B50035A0C50045A0D50055A0E50065A1F
:101BDA000F50075A1050085A1380D89010320F32FB
:101BEA000E320D320C320B320A320932112EC1EF8B
:101BFA000DF01250D8B404EF0EF006EF0EF016EF07
:101C0A000EF01A1E191E181E171E161E151E141E59
:101C1A00136C000E142215221622172218221922DA
:101C2A001A2213C001F014C002F015C003F016C046
:101C3A0004F017C005F018C006F019C007F01AC062
:101C4A0008F01200000E126E08BE30EF0EF02EEFF2
:101C5A000EF042EF0EF0081E071E061E051E041E99
:101C6A00031E021E016C000E022203220422052218
:101C7A00062207220822010E126E10BE49EF0EF04C
:101C8A0047EF0EF059EF0EF0101E0F1E0E1E0D1E1E
:101C9A000C1E0B1E0A1E096C000E0A220B220C22B5
:101CAA000D220E220F22102209500A100B100C10BE
:101CBA000D100E100F101010D8B466EF0EF068EF6A
:101CCA000EF0B0EF0EF0010E116E76EF0EF0D89016
:101CDA0009360A360B360C360D360E360F361036E6
:101CEA00112A10AE7BEF0EF07DEF0EF06CEF0EF0C6
:101CFA000950015C0A5002580B5003580C50045802
:101D0A000D5005580E5006580F50075810500858D5
:101D1A00D8A092EF0EF094EF0EF0A4EF0EF0095057
:101D2A00015E0A50025A0B50035A0C50045A0D50C5
:101D3A00055A0E50065A0F50075A1050085AD89092
:101D4A0010320F320E320D320C320B320A32093295
:101D5A00112E7DEF0EF01250D8B4B6EF0EF0B8EF98
:101D6A000EF0C8EF0EF0081E071E061E051E041E02
:101D7A00031E021E016C000E022203220422052207
:101D8A0006220722082201C001F002C002F003C0A5
:101D9A0003F004C004F005C005F006C006F007C051
:101DAA0007F008C008F01200000E0001BA6F000E1A
:101DBA00BB6F000EBC6F000EBD6F000ED56F000E1C
:101DCA00D46F22EC13F081A2EDEF0EF0EFEF0EF0DC
:101DDA00E8EF0EF0000ECF6E000ECE6ECD8081A21F
:101DEA00F9EF0EF0FBEF0EF002EF0FF09EA000EFFE
:101DFA000FF002EF0FF0F4EF0EF0CECFD8F0CFCF06
:101E0A00D9F0CD90D8C001F0D9C002F0000E02BEC0
:101E1A00FF0E036E046E010E89EC0CF001C00FF088
:101E2A0002C010F003C011F004C012F0000E136ECD
:101E3A00000E146E0C0E156E430E166E82EC07F031
:101E4A000FC0C2F010C0C3F011C0C4F012C0C5F078
:101E5A00BAC001F0BBC002F0BCC003F0BDC004F0C0
:101E6A00C2C005F0C3C006F0C4C007F0C5C008F080
:101E7A000DEC03F001C0BAF002C0BBF003C0BCF025
:101E8A0004C0BDF00001D44BD52BD5BF56EF0FF0DF
:101E9A00D55109E10A0ED45DD8A056EF0FF058EFDC
:101EAA000FF0E6EF0EF0000E2C6E000E2D6E200ED7
:101EBA002E6E410E2F6E000E136E000E146E200E43
:101ECA00156E410E166EBAC00FF0BBC010F0BCC042
:101EDA0011F0BDC012F082EC07F00FC028F010C05C
:101EEA0029F011C02AF012C02BF06DEC05F028C0C1
:101EFA0041F029C042F02AC043F02BC044F03DEC27
:101F0A0010F041C0D0F042C0D1F01200000E000122
:101F1A00BE6F000EBF6F000EC06F000EC16F000EC5
:101F2A00D76F000ED66F29EC13F081A09FEF0FF048
:101F3A00A1EF0FF09AEF0FF0000ECF6E000ECE6EEB
:101F4A00CD8081A0ABEF0FF0ADEF0FF0B4EF0FF043
:101F5A009EA0B2EF0FF0B4EF0FF0A6EF0FF0CECFC6
:101F6A00DAF0CFCFDBF0CD90DAC001F0DBC002F0BF
:101F7A00000E02BEFF0E036E046E010E89EC0CF019
:101F8A0001C00FF002C010F003C011F004C012F03B
:101F9A00000E136E000E146E0C0E156E430E166EA6
:101FAA0082EC07F00FC0C6F010C0C7F011C0C8F02D
:101FBA0012C0C9F0BEC001F0BFC002F0C0C003F039
:101FCA00C1C004F0C6C005F0C7C006F0C8C007F01B
:101FDA00C9C008F00DEC03F001C0BEF002C0BFF0AA
:101FEA0003C0C0F004C0C1F00001D64BD72BD7BF45
:101FFA0008EF10F0D75109E10A0ED65DD8A008EF14
:10200A0010F00AEF10F098EF0FF0000E2C6E000E91
:10201A002D6E200E2E6E410E2F6E000E136E000EC8
:10202A00146E200E156E410E166EBEC00FF0BFC0A4
:10203A0010F0C0C011F0C1C012F082EC07F00FC05E
:10204A0028F010C029F011C02AF012C02BF06DEC54
:10205A0005F028C041F029C042F02AC043F02BC045
:10206A0044F03DEC10F041C0D2F042C0D3F012006F
:10207A00433444344A6E4A50D8A446EF10F048EF2D
:10208A0010F052EF10F0000E416E000E426E000E7C
:10209A00436E000E446EBFEF10F041C045F042C0DF
:1020AA0046F043C047F044C048F0200E62EF10F0FB
:1020BA00D8904832473246324532E82E5DEF10F06A
:1020CA004550496E438EFF0E4116FF0E4216FF0E13
:1020DA004316000E4416960E4A5E4ABE79EF10F079
:1020EA0077EF10F08FEF10F04A50800A970FD8B0B0
:1020FA0081EF10F083EF10F085EF10F048EF10F049
:10210A00D89044324332423241324A3E85EF10F08F
:10211A00A7EF10F01F0E4A6495EF10F097EF10F03A
:10212A009FEF10F048EF10F0D89041364236433610
:10213A0044364A064A50D8A4A5EF10F0A7EF10F08B
:10214A0099EF10F04950D8B4ADEF10F0AFEF10F09E
:10215A00B7EF10F0441E431E421E416C000E42228D
:10216A004322442241C041F042C042F043C043F0FE
:10217A0044C044F0120003500410D8B4C7EF10F062
:10218A00C9EF10F0D2EF10F003500410D8A4D0EF2A
:10219A0010F0D2EF10F0D7EF10F0015030EC13F03E
:1021AA0024EF11F020EE04F00350D9260450DA226D
:1021BA00DE50DE10D8B4E4EF10F0E6EF10F001EFD5
:1021CA0011F020EE04F00350D9260450DA2210EE62
:1021DA0002F00350E1260450E222DE50E65CE650AB
:1021EA00800A096EDE50800A0958D8B0FFEF10F055
:1021FA0001EF11F024EF11F020EE02F00350D9267E
:10220A000450DA22DECF05F0DDCF06F003C0D9FF95
:10221A0004C0DAFFDECF07F0DDCF08F0055007244F
:10222A00D96E06500820DA6E01C0DFFF20EE02F0F8
:10223A000350D9260450DA22DE2A000EDD221200CB
:10224A005EA02AEF11F02CEF11F036EF11F013C057
:10225A000AF014C00BF011C00CF012C00DF080ECA3
:10226A0012F016BE3BEF11F03DEF11F043EF11F003
:10227A0015C01AF016C01BF047EF11F0000E1B6EC6
:10228A00000E1A6E000E196E000E186E59EF11F03C
:10229A00000E026E200E016E11C003F012C004F08F
:1022AA00C0EC10F0184A192A1A50185C1950800A02
:1022BA00176E1B50800A1758D8A066EF11F068EF06
:1022CA0011F04DEF11F05EB06DEF11F06FEF11F0FC
:1022DA0079EF11F013C00AF014C00BF011C00CF022
:1022EA0012C00DF080EC12F013C001F014C002F01D
:1022FA00E2EC12F01A500124116E1B500220126EE9
:10230A00120052C056F053C057F0000E0001CB6FB6
:10231A00000ECA6FA4EF11F050C040F051C041F056
:10232A00560E426E000E436E54C044F055C045F03E
:10233A00AFEC0BF040500001CA274150CB2356C0E6
:10234A00F6FF57C0F7FF0800F5500009D8A4B0EF10
:10235A0011F0B2EF11F091EF11F0CAC050F0CBC0FA
:10236A0051F01200CDEF11F009C0F6FF0AC0F7FFD5
:10237A00F86A050EF76403D00800F55005D0F6CFC9
:10238A00E1FFF7CFE2FFE7500FEC12F0094A0A2A01
:10239A0009C0F6FF0AC0F7FFF86A050EF76403D012
:1023AA000800F55005D0F6CFE1FFF7CFE2FFE7507E
:1023BA000009D8A4E3EF11F0E5EF11F0B9EF11F03D
:1023CA0012005C0E0001626F000E636F58C064F069
:1023DA0059C065F0000E676F000E666F000E696FD8
:1023EA00000E686F640E506E000E516E5AC052F0A5
:1023FA005BC053F0620E546E000E556E86EC11F0FF
:10240A00000166515824D96E67515920DA6E000EC0
:10241A00DF6E1200086E08C007F0F00E07168C5027
:10242A000F0B07108C6E8C848C8600F08C96000E35
:10243A00026E010E016E5BEC12F008C007F0073A5B
:10244A00F00E07168C500F0B07108C6E8C8600F05E
:10245A008C96000E026E030E016E5BEC12F01200F7
:10246A00086E08C007F0F00E07168C500F0B071005
:10247A008C6E8C948C8600F08C96000E026E010E87
:10248A00016E5BEC12F008C007F0073AF00E07166F
:10249A008C500F0B07108C6E8C8600F08C96000EF9
:1024AA00026E030E016E5BEC12F01200000E046E57
:1024BA00000E036E74EF12F0000E066E000E056E2B
:1024CA00054A062A065009E1A50E055CD8A070EF58
:1024DA0012F072EF12F065EF12F0034A042A01506B
:1024EA00035C02500458D8A07DEF12F07FEF12F07F
:1024FA0061EF12F01200000E106E000E0F6E91EFD7
:10250A0012F00EC001F0026A0CC003F00DC004F014
:10251A00C0EC10F00F4A102A0F500A24D96E10503E
:10252A000B20DA6EDF500E6E0E50D8A49FEF12F019
:10253A00A1EF12F086EF12F0120014BEAFEF12F004
:10254A00145006E11304D8B0ADEF12F0AFEF12F059
:10255A00BDEF12F013C015F014C016F0151E161EAA
:10256A00154A162A15C013F016C014F0C1EF12F05E
:10257A0013C013F014C014F012000E6E020E0E6097
:10258A00C9EF12F0CBEF12F0D4EF12F00B500F0B91
:10259A0080090F6E0F5035EC12F0DBEF12F00B5082
:1025AA000F0BC0090F6E0F5035EC12F00CC009F07A
:1025BA000DC00AF0B7EC11F0120001C003F002C01E
:1025CA0004F0EAEF12F0014A022A01C0D9FF02C060
:1025DA00DAFFDF50D8A4F4EF12F0F6EF12F0E8EFCA
:1025EA0012F00350015C016E04500258026E120090
:1025FA00000E956E000E026E0F0E016E5BEC12F06D
:10260A00020E35EC12F0280E35EC12F0010E35EC04
:10261A0012F00C0E35EC12F0060E35EC12F0120028
:10262A0000EEBAF0420EEE6AE806FDE15F6A5E6A03
:10263A00000EF86E0001BEEF0AF08C82060EE82E3C
:10264A00FED700D08C9212008C80060EE82EFED7A0
:08265A0000D08C901200120068
:020000040020DA
:08000000FFFFFFFFFFFFFFFF00
:020000040030CA
:0E000000FF091F1EFF8081FF0FC00FE00F40A1
:00000001FF
